{
  "abi": [
    {
      "inputs": [
        {
          "internalType": "uint256",
          "name": "_toll",
          "type": "uint256"
        },
        {
          "internalType": "address",
          "name": "_tollCollector",
          "type": "address"
        },
        {
          "internalType": "address payable",
          "name": "_tollReceiver",
          "type": "address"
        }
      ],
      "stateMutability": "nonpayable",
      "type": "constructor"
    },
    {
      "anonymous": false,
      "inputs": [
        {
          "indexed": true,
          "internalType": "address",
          "name": "receiver",
          "type": "address"
        },
        {
          "indexed": false,
          "internalType": "uint256",
          "name": "amount",
          "type": "uint256"
        },
        {
          "indexed": true,
          "internalType": "address",
          "name": "token",
          "type": "address"
        },
        {
          "indexed": false,
          "internalType": "bytes32",
          "name": "pkx",
          "type": "bytes32"
        },
        {
          "indexed": false,
          "internalType": "bytes32",
          "name": "ciphertext",
          "type": "bytes32"
        }
      ],
      "name": "Announcement",
      "type": "event"
    },
    {
      "anonymous": false,
      "inputs": [
        {
          "indexed": true,
          "internalType": "address",
          "name": "previousOwner",
          "type": "address"
        },
        {
          "indexed": true,
          "internalType": "address",
          "name": "newOwner",
          "type": "address"
        }
      ],
      "name": "OwnershipTransferred",
      "type": "event"
    },
    {
      "anonymous": false,
      "inputs": [
        {
          "indexed": true,
          "internalType": "address",
          "name": "receiver",
          "type": "address"
        },
        {
          "indexed": true,
          "internalType": "address",
          "name": "acceptor",
          "type": "address"
        },
        {
          "indexed": false,
          "internalType": "uint256",
          "name": "amount",
          "type": "uint256"
        },
        {
          "indexed": true,
          "internalType": "address",
          "name": "token",
          "type": "address"
        }
      ],
      "name": "TokenWithdrawal",
      "type": "event"
    },
    {
      "inputs": [],
      "name": "collectTolls",
      "outputs": [],
      "stateMutability": "nonpayable",
      "type": "function"
    },
    {
      "inputs": [],
      "name": "owner",
      "outputs": [
        {
          "internalType": "address",
          "name": "",
          "type": "address"
        }
      ],
      "stateMutability": "view",
      "type": "function"
    },
    {
      "inputs": [],
      "name": "renounceOwnership",
      "outputs": [],
      "stateMutability": "nonpayable",
      "type": "function"
    },
    {
      "inputs": [
        {
          "internalType": "address payable",
          "name": "_receiver",
          "type": "address"
        },
        {
          "internalType": "uint256",
          "name": "_tollCommitment",
          "type": "uint256"
        },
        {
          "internalType": "bytes32",
          "name": "_pkx",
          "type": "bytes32"
        },
        {
          "internalType": "bytes32",
          "name": "_ciphertext",
          "type": "bytes32"
        }
      ],
      "name": "sendEth",
      "outputs": [],
      "stateMutability": "payable",
      "type": "function"
    },
    {
      "inputs": [
        {
          "internalType": "address",
          "name": "_receiver",
          "type": "address"
        },
        {
          "internalType": "address",
          "name": "_tokenAddr",
          "type": "address"
        },
        {
          "internalType": "uint256",
          "name": "_amount",
          "type": "uint256"
        },
        {
          "internalType": "bytes32",
          "name": "_pkx",
          "type": "bytes32"
        },
        {
          "internalType": "bytes32",
          "name": "_ciphertext",
          "type": "bytes32"
        }
      ],
      "name": "sendToken",
      "outputs": [],
      "stateMutability": "payable",
      "type": "function"
    },
    {
      "inputs": [
        {
          "internalType": "uint256",
          "name": "_newToll",
          "type": "uint256"
        }
      ],
      "name": "setToll",
      "outputs": [],
      "stateMutability": "nonpayable",
      "type": "function"
    },
    {
      "inputs": [
        {
          "internalType": "address",
          "name": "_newTollCollector",
          "type": "address"
        }
      ],
      "name": "setTollCollector",
      "outputs": [],
      "stateMutability": "nonpayable",
      "type": "function"
    },
    {
      "inputs": [
        {
          "internalType": "address payable",
          "name": "_newTollReceiver",
          "type": "address"
        }
      ],
      "name": "setTollReceiver",
      "outputs": [],
      "stateMutability": "nonpayable",
      "type": "function"
    },
    {
      "inputs": [
        {
          "internalType": "address",
          "name": "",
          "type": "address"
        },
        {
          "internalType": "address",
          "name": "",
          "type": "address"
        }
      ],
      "name": "tokenPayments",
      "outputs": [
        {
          "internalType": "uint256",
          "name": "",
          "type": "uint256"
        }
      ],
      "stateMutability": "view",
      "type": "function"
    },
    {
      "inputs": [],
      "name": "toll",
      "outputs": [
        {
          "internalType": "uint256",
          "name": "",
          "type": "uint256"
        }
      ],
      "stateMutability": "view",
      "type": "function"
    },
    {
      "inputs": [],
      "name": "tollCollector",
      "outputs": [
        {
          "internalType": "address",
          "name": "",
          "type": "address"
        }
      ],
      "stateMutability": "view",
      "type": "function"
    },
    {
      "inputs": [],
      "name": "tollReceiver",
      "outputs": [
        {
          "internalType": "address payable",
          "name": "",
          "type": "address"
        }
      ],
      "stateMutability": "view",
      "type": "function"
    },
    {
      "inputs": [
        {
          "internalType": "address",
          "name": "newOwner",
          "type": "address"
        }
      ],
      "name": "transferOwnership",
      "outputs": [],
      "stateMutability": "nonpayable",
      "type": "function"
    },
    {
      "inputs": [
        {
          "internalType": "address",
          "name": "_acceptor",
          "type": "address"
        },
        {
          "internalType": "address",
          "name": "_tokenAddr",
          "type": "address"
        }
      ],
      "name": "withdrawToken",
      "outputs": [],
      "stateMutability": "nonpayable",
      "type": "function"
    },
    {
      "inputs": [
        {
          "internalType": "address",
          "name": "_acceptor",
          "type": "address"
        },
        {
          "internalType": "address",
          "name": "_tokenAddr",
          "type": "address"
        },
        {
          "internalType": "contract IUmbraHookReceiver",
          "name": "_hook",
          "type": "address"
        },
        {
          "internalType": "bytes",
          "name": "_data",
          "type": "bytes"
        }
      ],
      "name": "withdrawTokenAndCall",
      "outputs": [],
      "stateMutability": "nonpayable",
      "type": "function"
    },
    {
      "inputs": [
        {
          "internalType": "address",
          "name": "_stealthAddr",
          "type": "address"
        },
        {
          "internalType": "address",
          "name": "_acceptor",
          "type": "address"
        },
        {
          "internalType": "address",
          "name": "_tokenAddr",
          "type": "address"
        },
        {
          "internalType": "address",
          "name": "_sponsor",
          "type": "address"
        },
        {
          "internalType": "uint256",
          "name": "_sponsorFee",
          "type": "uint256"
        },
        {
          "internalType": "contract IUmbraHookReceiver",
          "name": "_hook",
          "type": "address"
        },
        {
          "internalType": "bytes",
          "name": "_data",
          "type": "bytes"
        },
        {
          "internalType": "uint8",
          "name": "_v",
          "type": "uint8"
        },
        {
          "internalType": "bytes32",
          "name": "_r",
          "type": "bytes32"
        },
        {
          "internalType": "bytes32",
          "name": "_s",
          "type": "bytes32"
        }
      ],
      "name": "withdrawTokenAndCallOnBehalf",
      "outputs": [],
      "stateMutability": "nonpayable",
      "type": "function"
    },
    {
      "inputs": [
        {
          "internalType": "address",
          "name": "_stealthAddr",
          "type": "address"
        },
        {
          "internalType": "address",
          "name": "_acceptor",
          "type": "address"
        },
        {
          "internalType": "address",
          "name": "_tokenAddr",
          "type": "address"
        },
        {
          "internalType": "address",
          "name": "_sponsor",
          "type": "address"
        },
        {
          "internalType": "uint256",
          "name": "_sponsorFee",
          "type": "uint256"
        },
        {
          "internalType": "uint8",
          "name": "_v",
          "type": "uint8"
        },
        {
          "internalType": "bytes32",
          "name": "_r",
          "type": "bytes32"
        },
        {
          "internalType": "bytes32",
          "name": "_s",
          "type": "bytes32"
        }
      ],
      "name": "withdrawTokenOnBehalf",
      "outputs": [],
      "stateMutability": "nonpayable",
      "type": "function"
    }
  ],
  "bytecode": {
    "object": "0x608060405234801561001057600080fd5b506040516116ab3803806116ab8339818101604052606081101561003357600080fd5b5080516020820151604090920151909190600061004e6100cf565b600080546001600160a01b0319166001600160a01b0383169081178255604051929350917f8be0079c531659141344cd1fd0a4f28419497f9722a3daafe3b4186f6b6457e0908290a350600192909255600280546001600160a01b039283166001600160a01b031991821617909155600380549290931691161790556100d3565b3390565b6115c9806100e26000396000f3fe6080604052600436106100fe5760003560e01c806381ab0fcd11610095578063b400ee4611610064578063b400ee46146104a5578063b9bfabe1146104ba578063beb9addf146104fc578063c0b9b4ea14610534578063f2fde38b14610567576100fe565b806381ab0fcd146103c25780638da5cb5b1461042b5780638ef490b014610440578063a3dace5d1461047b576100fe565b8063285aaa20116100d1578063285aaa201461031a5780633aeac4e114610341578063715018a61461037c5780637e8c2f9414610391576100fe565b8063059ca2f5146101035780630c6b7067146101d9578063185ad0a51461020c57806323d0e7a114610221575b600080fd5b34801561010f57600080fd5b506101d76004803603608081101561012657600080fd5b6001600160a01b038235811692602081013582169260408201359092169181019060808101606082013564010000000081111561016257600080fd5b82018360208201111561017457600080fd5b8035906020019184600183028401116401000000008311171561019657600080fd5b91908080601f01602080910402602001604051908101604052809392919081815260200183838082843760009201919091525092955061059a945050505050565b005b3480156101e557600080fd5b506101d7600480360360208110156101fc57600080fd5b50356001600160a01b03166105b0565b34801561021857600080fd5b506101d7610634565b34801561022d57600080fd5b506101d7600480360361014081101561024557600080fd5b6001600160a01b03823581169260208101358216926040820135831692606083013581169260808101359260a08201359092169181019060e0810160c082013564010000000081111561029757600080fd5b8201836020820111156102a957600080fd5b803590602001918460018302840111640100000000831117156102cb57600080fd5b91908080601f0160208091040260200160405190810160405280939291908181526020018383808284376000920191909152509295505060ff83351693505050602081013590604001356106cf565b34801561032657600080fd5b5061032f6106fc565b60408051918252519081900360200190f35b34801561034d57600080fd5b506101d76004803603604081101561036457600080fd5b506001600160a01b0381358116916020013516610702565b34801561038857600080fd5b506101d7610726565b34801561039d57600080fd5b506103a66107d2565b604080516001600160a01b039092168252519081900360200190f35b3480156103ce57600080fd5b506101d760048036036101008110156103e657600080fd5b506001600160a01b0381358116916020810135821691604082013581169160608101359091169060808101359060ff60a0820135169060c08101359060e001356107e1565b34801561043757600080fd5b506103a661082c565b34801561044c57600080fd5b5061032f6004803603604081101561046357600080fd5b506001600160a01b038135811691602001351661083b565b34801561048757600080fd5b506101d76004803603602081101561049e57600080fd5b5035610858565b3480156104b157600080fd5b506103a66108bf565b6101d7600480360360a08110156104d057600080fd5b506001600160a01b038135811691602081013590911690604081013590606081013590608001356108ce565b6101d76004803603608081101561051257600080fd5b506001600160a01b038135169060208101359060408101359060600135610a02565b34801561054057600080fd5b506101d76004803603602081101561055757600080fd5b50356001600160a01b0316610b2c565b34801561057357600080fd5b506101d76004803603602081101561058a57600080fd5b50356001600160a01b0316610bb0565b6105aa3385856000808787610cb2565b50505050565b6105b8610ec9565b6001600160a01b03166105c961082c565b6001600160a01b031614610612576040805162461bcd60e51b81526020600482018190526024820152600080516020611573833981519152604482015290519081900360640190fd5b600280546001600160a01b0319166001600160a01b0392909216919091179055565b6002546001600160a01b03163314610693576040805162461bcd60e51b815260206004820152601960248201527f556d6272613a204e6f7420746f6c6c20636f6c6c6563746f7200000000000000604482015290519081900360640190fd5b6003546040516001600160a01b03909116904780156108fc02916000818181858888f193505050501580156106cc573d6000803e3d6000fd5b50565b6106e18a8a8a8a8a8a8a8a8a8a610ecd565b6106f08a8a8a8a8a8a8a610cb2565b50505050505050505050565b60015481565b610722338383600080600060405180602001604052806000815250610cb2565b5050565b61072e610ec9565b6001600160a01b031661073f61082c565b6001600160a01b031614610788576040805162461bcd60e51b81526020600482018190526024820152600080516020611573833981519152604482015290519081900360640190fd5b600080546040516001600160a01b03909116907f8be0079c531659141344cd1fd0a4f28419497f9722a3daafe3b4186f6b6457e0908390a3600080546001600160a01b0319169055565b6002546001600160a01b031681565b61080388888888886000604051806020016040528060008152508a8a8a610ecd565b6108228888888888600060405180602001604052806000815250610cb2565b5050505050505050565b6000546001600160a01b031690565b600460209081526000928352604080842090915290825290205481565b610860610ec9565b6001600160a01b031661087161082c565b6001600160a01b0316146108ba576040805162461bcd60e51b81526020600482018190526024820152600080516020611573833981519152604482015290519081900360640190fd5b600155565b6003546001600160a01b031681565b6001543414610924576040805162461bcd60e51b815260206004820152601e60248201527f556d6272613a204d757374207061792074686520657861637420746f6c6c0000604482015290519081900360640190fd5b6001600160a01b03808616600090815260046020908152604080832093881683529290522054156109865760405162461bcd60e51b81526004018080602001828103825260318152602001806115426031913960400191505060405180910390fd5b6001600160a01b03808616600081815260046020908152604080832094891680845294825291829020879055815187815290810186905280820185905290517f29877766fa2bfe3b90008d6d92f965eca91cbc5757ed775740e460799fb922199181900360600190a36109fb843330866110f5565b5050505050565b6001548314610a425760405162461bcd60e51b815260040180806020018281038252602a8152602001806114f2602a913960400191505060405180910390fd5b6001543411610a825760405162461bcd60e51b81526004018080602001828103825260228152602001806114766022913960400191505060405180910390fd5b600154604080513492909203808352602083018590528282018490529051909173eeeeeeeeeeeeeeeeeeeeeeeeeeeeeeeeeeeeeeee916001600160a01b038816917f29877766fa2bfe3b90008d6d92f965eca91cbc5757ed775740e460799fb92219919081900360600190a36040516001600160a01b0386169082156108fc029083906000818181858888f19350505050158015610b24573d6000803e3d6000fd5b505050505050565b610b34610ec9565b6001600160a01b0316610b4561082c565b6001600160a01b031614610b8e576040805162461bcd60e51b81526020600482018190526024820152600080516020611573833981519152604482015290519081900360640190fd5b600380546001600160a01b0319166001600160a01b0392909216919091179055565b610bb8610ec9565b6001600160a01b0316610bc961082c565b6001600160a01b031614610c12576040805162461bcd60e51b81526020600482018190526024820152600080516020611573833981519152604482015290519081900360640190fd5b6001600160a01b038116610c575760405162461bcd60e51b81526004018080602001828103825260268152602001806114986026913960400191505060405180910390fd5b600080546040516001600160a01b03808516939216917f8be0079c531659141344cd1fd0a4f28419497f9722a3daafe3b4186f6b6457e091a3600080546001600160a01b0319166001600160a01b0392909216919091179055565b6001600160a01b03808816600090815260046020908152604080832093891683529290522054838111610d165760405162461bcd60e51b81526004018080602001828103825260348152602001806114be6034913960400191505060405180910390fd5b6001600160a01b0380891660008181526004602090815260408083208b8616808552908352818420939093558051898703808252915191959394938d1693927f30eb3583ad09933b693a45452ab07512244cdbc5868701aa004c27b7b267c24992918290030190a4610d8987898361114f565b8415610d9a57610d9a87878761114f565b6001600160a01b03841615610ebe57836001600160a01b031663579073de828b8b8b8b8b8a6040518863ffffffff1660e01b815260040180888152602001876001600160a01b03168152602001866001600160a01b03168152602001856001600160a01b03168152602001846001600160a01b0316815260200183815260200180602001828103825283818151815260200191508051906020019080838360005b83811015610e53578181015183820152602001610e3b565b50505050905090810190601f168015610e805780820380516001836020036101000a031916815260200191505b5098505050505050505050600060405180830381600087803b158015610ea557600080fd5b505af1158015610eb9573d6000803e3d6000fd5b505050505b505050505050505050565b3390565b6000469050600081308c8c8c8c8c8c60405160200180898152602001886001600160a01b03168152602001876001600160a01b03168152602001866001600160a01b03168152602001856001600160a01b03168152602001848152602001836001600160a01b0316815260200180602001828103825283818151815260200191508051906020019080838360005b83811015610f73578181015183820152602001610f5b565b50505050905090810190601f168015610fa05780820380516001836020036101000a031916815260200191505b5099505050505050505050506040516020818303038152906040528051906020012060405160200180807f19457468657265756d205369676e6564204d6573736167653a0a333200000000815250601c01828152602001915050604051602081830303815290604052805190602001209050600060018287878760405160008152602001604052604051808581526020018460ff1681526020018381526020018281526020019450505050506020604051602081039080840390855afa15801561106e573d6000803e3d6000fd5b5050604051601f1901519150506001600160a01b038116158015906110a457508c6001600160a01b0316816001600160a01b0316145b610eb9576040805162461bcd60e51b815260206004820152601860248201527f556d6272613a20496e76616c6964205369676e61747572650000000000000000604482015290519081900360640190fd5b604080516001600160a01b0380861660248301528416604482015260648082018490528251808303909101815260849091019091526020810180516001600160e01b03166323b872dd60e01b1790526105aa9085906111a6565b604080516001600160a01b038416602482015260448082018490528251808303909101815260649091019091526020810180516001600160e01b031663a9059cbb60e01b1790526111a19084906111a6565b505050565b60006111fb826040518060400160405280602081526020017f5361666545524332303a206c6f772d6c6576656c2063616c6c206661696c6564815250856001600160a01b03166112579092919063ffffffff16565b8051909150156111a15780806020019051602081101561121a57600080fd5b50516111a15760405162461bcd60e51b815260040180806020018281038252602a815260200180611593602a913960400191505060405180910390fd5b60606112668484600085611270565b90505b9392505050565b6060824710156112b15760405162461bcd60e51b815260040180806020018281038252602681526020018061151c6026913960400191505060405180910390fd5b6112ba856113cb565b61130b576040805162461bcd60e51b815260206004820152601d60248201527f416464726573733a2063616c6c20746f206e6f6e2d636f6e7472616374000000604482015290519081900360640190fd5b600080866001600160a01b031685876040518082805190602001908083835b602083106113495780518252601f19909201916020918201910161132a565b6001836020036101000a03801982511681845116808217855250505050505090500191505060006040518083038185875af1925050503d80600081146113ab576040519150601f19603f3d011682016040523d82523d6000602084013e6113b0565b606091505b50915091506113c08282866113d1565b979650505050505050565b3b151590565b606083156113e0575081611269565b8251156113f05782518084602001fd5b8160405162461bcd60e51b81526004018080602001828103825283818151815260200191508051906020019080838360005b8381101561143a578181015183820152602001611422565b50505050905090810190601f1680156114675780820380516001836020036101000a031916815260200191505b509250505060405180910390fdfe556d6272613a204d75737420706179206d6f7265207468616e2074686520746f6c6c4f776e61626c653a206e6577206f776e657220697320746865207a65726f2061646472657373556d6272613a204e6f2062616c616e636520746f207769746864726177206f722066656520657863656564732062616c616e6365556d6272613a20496e76616c6964206f72206f7574646174656420746f6c6c20636f6d6d69746d656e74416464726573733a20696e73756666696369656e742062616c616e636520666f722063616c6c556d6272613a2043616e6e6f742073656e64206d6f726520746f6b656e7320746f20737465616c746820616464726573734f776e61626c653a2063616c6c6572206973206e6f7420746865206f776e65725361666545524332303a204552433230206f7065726174696f6e20646964206e6f742073756363656564a164736f6c6343000706000a",
    "linkReferences": {}
  }
}